:020000040800F2
:1000000068160020D5010008350800082D080008F2
:10001000310800082B0500086910000800000000E6
:10002000000000000000000000000000510B00086C
:100030002F05000800000000210A0008650C0008D8
:10004000EF010008EF010008EF010008EF010008D0
:10005000EF010008EF010008EF010008EF010008C0
:10006000EF010008EF010008EF010008EF010008B0
:10007000EF010008EF010008EF010008EF010008A0
:10008000EF010008EF010008EF010008EF01000890
:10009000EF010008EF010008EF010008EF01000880
:1000A000EF010008EF010008EF010008EF01000870
:1000B000EF010008EF010008EF010008EF01000860
:1000C000EF010008EF010008EF010008EF01000850
:1000D000EF010008EF010008C90C0008FD0C000842
:1000E000EF010008EF010008EF010008EF01000830
:1000F00000F002F800F05FF80AA090E8000C8244DB
:100100008344AAF10107DA4501D100F054F8AFF2B7
:10011000090EBAE80F0013F0010F18BFFB1A43F0E5
:1001200001031847C0190000E01900000A444FF00D
:10013000000C10F8013B13F0070408BF10F8014B46
:100140001D1108BF10F8015B641E05D010F8016B8B
:10015000641E01F8016BF9D113F0080F1EBF10F8EF
:10016000014BAD1C0C1B09D16D1E58BF01F801CB12
:10017000FAD505E014F8016B01F8016B6D1EF9D595
:100180009142D6D3704700000023002400250026AA
:10019000103A28BF78C1FBD8520728BF30C148BFEA
:1001A0000B607047642900F08980002070471FB5FC
:1001B0001FBD10B510BD00F07FF91146FFF7F7FF26
:1001C00000F066FF00F09DF903B4FFF7F2FF03BCF7
:1001D00000F0A4F90948804709480047FEE7FEE718
:1001E000FEE7FEE7FEE7FEE7FEE7FEE7FEE7FEE7E7
:1001F00004480549054A064B70470000690C000891
:10020000F100000868100020681600206812002025
:10021000681200200FB4044910B503AA029800F038
:1002200035F910BC5DF814FB800400200FB41CB538
:10023000074B06AA7B4469460090059800F00DF92B
:100240000020694600F01CF91CBC5DF814FB00009E
:10025000490200002DE9F0410E46044600202062CC
:100260002046E168884730B3252805D0D4E901212C
:100270009047206A401CF2E7E16820460027884743
:10028000050018D0A5F14100192802D820354FF4F7
:1002900000673246294620462760FFF783FF40B1BA
:1002A000012804D0F61D26F007060836D8E7361DCB
:1002B000D6E72846DAE7206ABDE8F0812DE9F0416B
:1002C0000646002410687529314616A510D0AFF3F4
:1002D0000080002802DA404213A507E031688A074F
:1002E00001D512A502E0490704D511A5012401E0BA
:1002F000AFF3008000210A2206F1240709E0B0FBD9
:10030000F2FCB0FBF2F302FB1C00303078541846CC
:10031000491C0028F3D123462A463046BDE8F04167
:1003200000F03DB8000000002D0000002B00000090
:100330002000000010B5203AC0F00B80B1E8185042
:10034000203AA0E81850B1E81850A0E81850BFF4BF
:10035000F5AF5FEA027C24BFB1E81850A0E818505E
:1003600044BF18C918C0BDE810405FEA827C24BFB2
:1003700051F8043B40F8043B08BF7047D20728BF40
:1003800031F8023B48BF11F8012B28BF20F8023B8F
:1003900048BF00F8012B70477047704770472DE940
:1003A000F0470D4699469246044600F1240801683C
:1003B000880604D5E06921F01001216000E00120E9
:1003C000A84201DD471B00E00027A1697A1902EB72
:1003D0000900081AA0612078C00602D42046AFF3B5
:1003E0000080002608E0D4E901211AF806009047B1
:1003F000206A401C761C20624E45F4DB2078C00643
:100400000AD52046AFF3008006E0D4E90121302070
:100410009047206A401C2062381EA7F10107F4DCD7
:1004200007E0D4E9012118F805009047206A401C34
:100430002062281EA5F10105F3DC2046AFF3008001
:100440002078000602D50220BDE8F0870120FBE7F6
:1004500001694A1C02610878704700B58FB0CDE988
:1004600001310021059105497944CDE90310114678
:100470006846FFF7EFFE0FB000BD0000E5FFFFFF8D
:100480000A6802F8010B0A6070470000074B70B55C
:100490000D467B44FFF7E1FF0446284600F008F8CC
:1004A00010B14FF0FF3070BD204670BDD70B00007B
:1004B000007B00F080007047754600F02BF8AE46D8
:1004C00005006946534620F00700854618B020B560
:1004D000FFF78EFEBDE820404FF000064FF000070A
:1004E0004FF000084FF0000B21F00701AC46ACE8DC
:1004F000C009ACE8C009ACE8C009ACE8C0098D4649
:10050000704710B50446AFF300802046BDE81040A8
:10051000FFF75ABE00487047081000200149182014
:10052000ABBEFEE726000200704700BFFEE7704743
:1005300010B56FF0040000F081FB0A4800680A491A
:10054000B0FBF1F0094908700846007800EB400163
:10055000C1EBC0104FF6FF7101EAC00004490880EA
:1005600010BD00006C04002000127A0084040020FA
:10057000860400200146114A12884A434FF0E023C6
:100580005A6100229A611A46126942F001021A6108
:1005900000BF4FF0E022106900F001021AB100F430
:1005A0008032002AF5D04FF0E022126922F00102D9
:1005B0004FF0E0231A6100229A6170478604002000
:1005C0002DE9F041024600250026002000230024EA
:1005D000002791F803C00CF00F0591F803C00CF050
:1005E000100CBCF1000F03D091F802C04CEA0505D5
:1005F00091F800C0BCF1000F31D0146800202BE04E
:100600004FF0010C0CFA00F3B1F800C00CEA03063D
:100610009E4220D183004FF00F0C0CFA03F7BC432D
:1006200005FA03FC4CEA040491F803C0BCF1280F5E
:1006300006D14FF0010C0CFA00FCC2F814C00AE01D
:1006400091F803C0BCF1480F05D14FF0010C0CFA32
:1006500000FCC2F810C0401C0828D1D31460B1F8C7
:1006600000C0BCF1FF0F34DD546800202EE000F123
:10067000080C4FF0010808FA0CF3B1F800C00CEABE
:1006800003069E4221D183004FF00F0C0CFA03F7B2
:10069000BC4305FA03FC4CEA040491F803C0BCF126
:1006A000280F05D100F1080C08FA0CF8C2F81480E4
:1006B00091F803C0BCF1480F07D100F1080C4FF0CE
:1006C000010808FA0CF8C2F81080401C0828CED3A4
:1006D0005460BDE8F081000008B50121082000F059
:1006E000B1F97820ADF8000010208DF80300032048
:1006F0008DF8020069464A48FFF762FF78214848B2
:1007000000F092F82021464800F08EF86420FFF7B0
:1007100031FF2021424800F085F86420FFF72AFFCE
:1007200020213F4800F080F80021AE2000F048F979
:100730000021084600F044F90021102000F040F9A3
:100740000021402000F03CF90021812000F038F920
:100750000021CF2000F034F90021A12000F030F971
:100760000021C82000F02CF90021A62000F028F973
:100770000021A82000F024F900213F2000F020F9FA
:100780000021D32000F01CF90021084600F018F9E0
:100790000021D52000F014F90021802000F010F98C
:1007A0000021D92000F00CF90021F12000F008F917
:1007B0000021DA2000F004F90021122000F000F9F5
:1007C0000021DB2000F0FCF80021402000F0F8F8C8
:1007D0000021202000F0F4F80021022000F0F0F8C1
:1007E00000218D2000F0ECF80021142000F0E8F842
:1007F0000021A42000F0E4F80021A62000F0E0F899
:100800000021AF2000F0DCF80021AF2000F0D8F884
:1008100000F04AF80021084600F066F808BD000024
:10082000000C0140416170470161704700BFFEE765
:1008300000BFFEE77047000070B5002100230F22C3
:10084000C47804B3154C246804F4E064C4F5E0648F
:10085000210AC1F10403CA40447804FA03F1847800
:100860001440214309010E4C0678A155047804F088
:100870001F050124AC4005786D11AD0005F1E025A0
:10088000C5F8004109E0047804F01F050124AC40DC
:10089000044D0678761145F8264070BD0CED00E059
:1008A00000E400E080E100E070B5002419E004F10C
:1008B000B001C8B2002100F083F80021084600F022
:1008C0007FF80021102000F07BF8002505E00121D1
:1008D000002000F075F8681CC5B2802DF7DB601CA5
:1008E000C4B2082CE3DB70BD70B504460D4605F1BB
:1008F000B001C8B2002100F063F8102141EA1410E1
:10090000002100F05DF804F00F0141F0010000212A
:1009100000F056F870BD00002DE9F04107460E4684
:10092000904600250024A8F12000C5B27F2F02DDEB
:100930000027B01CC6B231463846FFF7D5FF002469
:1009400008E004EB05110F4A505C012100F038F873
:10095000601CC4B2082CF4DB701CC1B23846FFF72F
:10096000C3FF002409E004EB05110831054A505C7F
:10097000012100F025F8601CC4B2082CF3DBBDE8AF
:10098000F0810000F31400082DE9F04104460F4601
:10099000154600260EE0AA5D39462046FFF7BCFF4B
:1009A00004F10800C4B2782C02DD0024B81CC7B2E0
:1009B000701CC6B2A85D0028EDD1BDE8F081000032
:1009C00070B504460E4626B140211448FFF72CFFAF
:1009D00003E040211148FFF725FF002517E008211B
:1009E0000E48FFF71FFF04F0800020B110210B48D4
:1009F000FFF71AFF03E010210848FFF713FF082153
:100A00000648FFF711FF6006040E681CC5B2082DEA
:100A1000E5DB40210148FFF707FF70BD000C0140F6
:100A20007047000029B1064AD2690243044BDA61DB
:100A300004E0034AD2698243014BDA617047000047
:100A40000010024029B1064A92690243044B9A61A0
:100A500004E0034A92698243014B9A6170470000A7
:100A60000010024030B50021002200240023324D46
:100A70006D6805F00C0121B1042905D008292CD19D
:100A800005E02E4D05602BE02C4D056028E02A4D39
:100A90006D6805F47012284D6D6805F480340225E8
:100AA00005EB924264B9264D2D6805F010051DB185
:100AB000224D554305600FE0224D554305600BE084
:100AC0001D4D6D6805F400351DB11E4D5543056083
:100AD00002E01A4D5543056002E0184D056000BF65
:100AE00000BF154D6D6805F0F0010909164D6B5CEE
:100AF0000568DD404560104D6D6805F4E061090A48
:100B0000114D6B5C4568DD4085600B4D6D6805F4EB
:100B10006051C90A0C4D6B5C4568DD40C560064DEF
:100B20006D6805F44041890B084D6B5CC568B5FBE9
:100B3000F3F5056130BD00000010024000127A009C
:100B40000038024000093D0088040020980400207D
:100B5000704710B500F002F810BD00000CB5002081
:100B6000019000903348006840F4803031490860BB
:100B700000BF3048006800F4003000900198401C2D
:100B80000190009818B90198B0F5A06FF1D12948EB
:100B9000006800F4003010B10120009001E0002056
:100BA00000900098012843D12348006840F01000CD
:100BB000214908600846006820F0030008600846E4
:100BC000006840F0020008601A484068194948600F
:100BD0000846406848600846406840F480604860C5
:100BE0000846406820F47C1048600846406840F49D
:100BF000E81048600846006840F08070086000BF58
:100C00000C48006800F000700028F9D009484068DE
:100C100020F00300074948600846406840F00200A1
:100C2000486000BF0348406800F00C000828F9D174
:100C30000CBD00000010024000200240042808D132
:100C40004FF0E021096941F004014FF0E022116109
:100C500007E04FF0E021096921F004014FF0E022A4
:100C6000116170477047000010B51348006840F0EC
:100C700001001149086008464068104908400E49C3
:100C80004860084600680E4908400B49086008465D
:100C9000006820F4802008600846406820F4FE00C8
:100CA00048604FF41F008860FFF753FF4FF000606B
:100CB0000449086010BD0000001002400000FFF869
:100CC000FFFFF6FE08ED00E010B540F225510848A0
:100CD00000F053F858B1064800F030F9C1B20548A9
:100CE00002780078401C034B18700348815410BDF3
:100CF00000440040F60300209C0D002010B540F297
:100D000025510F4800F039F8C0B10D4800F016F930
:100D1000C1B20C4802780078401C0A4B18700A488F
:100D2000815418460078352808D1002240F2255118
:100D3000034800F048F801200449087010BD000085
:100D40000048004065040020D10F00206704002007
:100D500021B1828942F40052828104E082894DF6F9
:100D6000FF731A40828170470246002013880B40AF
:100D70000BB1012000E00020704770B502460B4621
:100D80000024002100250020C3F3421503F01F01B9
:100D9000012606FA01F1012D02D19689314006E0C3
:100DA000022D02D1168A314001E0968A31401C1290
:100DB000012606FA04F41688344011B10CB1012062
:100DC00000E0002070BDF0B5034600240026002599
:100DD00000201846C1F3421401F01F06012707FA4C
:100DE00006F5012C01D10C3004E0022C01D11030A9
:100DF00000E014301AB107682F43076002E007686B
:100E0000AF430760F0BD00002DE9F04786B005460E
:100E10000E460024A24600BFA14600272F462C8A7A
:100E20004CF6FF700440F08804432C82AC894EF6E7
:100E3000F3100440B08831890843718908430443A2
:100E4000AC81AC8A4FF6FF400440B0890443AC82C9
:100E500001A8FFF707FE1F48874202D1DDF810A066
:100E600001E0DDF80CA0A88900F4004040B10AEBD5
:100E7000CA0000EB0A1031684900B0FBF1F807E046
:100E80000AEBCA0000EB0A1031688900B0FBF1F8E8
:100E90006420B8FBF0F004012009642101FB1089F3
:100EA000A88900F4004040B1322000EBC900B0FB3B
:100EB000F1F000F00700044308E0322000EB0910D5
:100EC0006421B0FBF1F000F00F0004432C8106B068
:100ED000BDE8F0870038014010B586B00446012116
:100EE00044F20400FFF7AEFD4FF40070ADF81400BB
:100EF00003208DF8160018208DF8170005A90D485D
:100F0000FFF75EFB01940020ADF80800ADF80A0081
:100F1000ADF80C00ADF810000820ADF80E0001A9E6
:100F20000548FFF771FF01210348FFF711FF06B0E5
:100F300010BD0000000801400038014001468888CB
:100F4000C0F308007047C1F30802828070470000B8
:100F500000B587B001214FF4C020FFF763FD0121E8
:100F60000C20FFF76FFD0420ADF8180003208DF86A
:100F70001A0018208DF81B0006A93748FFF720FB40
:100F80000820ADF8180004208DF81B0006A932488F
:100F9000FFF716FB4FF48060ADF8180003208DF8C2
:100FA0001A0018208DF81B0006A92C48FFF708FB33
:100FB0004FF40060ADF8180004208DF81B0006A95E
:100FC0002648FFF7FDFA4FF4E13002900020ADF81B
:100FD0000C00ADF80E00ADF81000ADF814000C20B8
:100FE000ADF8120002A91E48FFF70EFF012240F2E1
:100FF00025511B48FFF7E7FE02A91A48FFF704FF37
:10100000012240F225511748FFF7DDFE26208DF81A
:10101000040001208DF805008DF806008DF807000A
:1010200001A8FFF709FC27208DF8040002208DF8A5
:1010300005008DF8060001208DF8070001A8FFF7D4
:10104000FBFB01210648FFF783FE01210548FFF75E
:101050007FFE07B000BD000000080140000C014009
:10106000004400400048004000BFFEE770B5044661
:101070000D4600BF40210548FFF776FE0028F9D055
:10108000E1B20248FFF75FFF204670BD0038014023
:1010900094B0202254490CA8FFF74CF92022524961
:1010A000203104A8FFF746F94F4B40330FCB8DE8B2
:1010B0000F0000260025FFF73BFA4FF4E130FFF761
:1010C0000BFF4A4801684AA0FFF7A4F8FFF740FF6A
:1010D000FFF702FBFFF7E8FB0CAA00210846FFF729
:1010E00053FC04AA03210020FFF74EFC6A460621A8
:1010F0000020FFF749FC4FF4FA70FFF73BFA72E06B
:101100003F480078002851DD3E4800783C49097886
:10111000884244D13A4801783B4800F08BF80646B3
:10112000002E16DDFFF7C0FB324638A16846FFF7F8
:101130007DF80CAA00210846FFF726FC04AA03212B
:101140000020FFF721FC6A4606210020FFF71CFC67
:1011500014E0FFF7A9FB30A16846FFF767F80CAA77
:1011600000210846FFF710FC04AA03210020FFF726
:101170000BFC6A4606210020FFF706FC002404E071
:10118000002028490855601C84B2FF2CF8DB0020A1
:101190001B4908701B49087040F6B83506E018482E
:1011A0000078184908703220FFF7E4F9002D1ADDA5
:1011B000681E85B2A5B9FFF777FB1BA16846FFF74C
:1011C00035F80CAA00210846FFF7DEFB04AA03212C
:1011D0000020FFF7D9FB6A4606210020FFF7D4FB69
:1011E0000120FFF7C7F98BE77C1200086C04002090
:1011F00053797374656D436C6B3A25640D0A000076
:10120000F6030020F70300209C0D0020202020433F
:101210006F64653A25640000202020436F64653ABE
:10122000657272009C0E0020202020436F64653A96
:101230000000000030B502460024002300250829E4
:1012400001D0002030BD1078AA2802D1507855284E
:1012500001D00020F6E79078042807D1D07806283E
:1012600004D11079022801D10020EBE753791479D9
:1012700004EB032085B22846E4E70000202020206C
:1012800020476F6F644D6520202020200000000063
:101290000000000000000000000000002020546555
:1012A00061436F646520546F6F6C20200000000064
:1012B000000000000000000000000000202020636B
:1012C0006F64653A000000000000000000000000AC
:1012D000000000002F000000000700070000147F3E
:1012E000147F1400242A7F2A12006264081323004A
:1012F000364955225000000503000000001C224121
:1013000000000041221C000014083E0814000808D8
:101310003E0808000000A060000008080808080057
:101320000060600000002010080402003E514945A2
:101330003E0000427F400000426151494600214189
:10134000454B31001814127F1000274545453900E0
:101350003C4A4949300001710905030036494949B1
:101360003600064949291E000036360000000056A6
:101370003600000008142241000014141414140054
:101380000041221408000201510906003249595156
:101390003E007C1211127C007F49494936003E41D3
:1013A000414122007F4141221C007F4949494100BF
:1013B0007F09090901003E4149497A007F08080870
:1013C0007F0000417F4100002040413F01007F0835
:1013D000142241007F40404040007F020C027F0009
:1013E0007F0408107F003E4141413E007F0909090A
:1013F00006003E4151215E007F09192946004649F9
:101400004949310001017F0101003F4040403F0058
:101410001F2040201F003F4038403F006314081445
:101420006300070870080700615149454300007FC9
:1014300041410000552A552A55000041417F0000D6
:101440000402010204004040404040000001020448
:1014500000002054545478007F48444438003844F5
:1014600044442000384444487F0038545454180001
:10147000087E0901020018A4A4A47C007F080404CB
:10148000780000447D4000004080847D00007F1093
:101490002844000000417F4000007C0418047800CC
:1014A0007C0804047800384444443800FC24242494
:1014B000180018242418FC007C0804040800485470
:1014C00054542000043F444020003C4040207C0015
:1014D0001C2040201C003C4030403C004428102888
:1014E00044001CA0A0A07C004464544C4414141478
:1014F00014141400000000000000000000000000B0
:10150000000000000000F800000000000000333080
:1015100000000000100C06100C0600000000000087
:1015200000000040C07840C0784000043F04043F01
:10153000040400007088FC08300000001820FF211F
:101540001E0000F008F000E018000000211C031E3F
:10155000211E0000F00888700000001E21232419BD
:1015600027211010160E00000000000000000000EF
:10157000000000000000E01804020000000007184E
:1015800020400000020418E000000000402018077E
:10159000000000404080F0804040000202010F0146
:1015A000020200000000F0000000000101011F0124
:1015B000010100000000000000000080B070000089
:1015C0000000000000000000000000000101010117
:1015D00001010100000000000000000030300000A8
:1015E0000000000000000080601804006018060180
:1015F00000000000E010080810E000000F1020209C
:10160000100F00001010F8000000000020203F2004
:10161000200000007008080888700000302824228C
:101620002130000030088888483000001820202031
:10163000110E000000C02010F80000000704242450
:101640003F240000F808888808080000192120209D
:10165000110E0000E0108888180000000F112020F3
:10166000110E0000380808C83808000000003F00CC
:101670000000000070880808887000001C222121EA
:10168000221C0000E010080810E0000000312222B7
:10169000110F00000000C0C000000000000030304A
:1016A00000000000000080000000000000806000DA
:1016B0000000000000804020100800000102040823
:1016C0001020004040404040404000040404040416
:1016D00004040000081020408000000020100804CE
:1016E000020100007048080808F0000000003036D1
:1016F000010000C030C828E810E0000718272423A4
:10170000140B000000C038E0000000203C2302025F
:1017100027382008F8888888700000203F20202083
:10172000110E00C0300808080838000718202020D3
:1017300010080008F808080810E000203F202020CA
:10174000100F0008F88888E8081000203F202023A8
:1017500020180008F88888E8081000203F200003BF
:10176000000000C0300808083800000718202022B8
:101770001E020008F808000008F808203F210101B7
:10178000213F20000808F8080800000020203F2022
:1017900020000000000808F8080800C08080807F52
:1017A00000000008F888C028180800203F20012603
:1017B00038200008F8080000000000203F2020200A
:1017C00020300008F8F800F8F80800203F003F003B
:1017D0003F200008F830C00008F808203F2000072C
:1017E000183F00E01008080810E0000F102020202B
:1017F000100F0008F808080808F000203F21010138
:10180000010000E01008080810E0000F1824243838
:10181000504F0008F8888888887000203F20000317
:101820000C3020007088080808380000382021217A
:10183000221C00180808F8080818000000203F20A3
:1018400000000008F808000008F808001F20202009
:10185000201F000878880000C83808000007380EEC
:10186000010000F80800F80008F800033C07000732
:101870003C0300081868808068180820302C030397
:101880002C30200838C800C83808000000203F204D
:1018900000000010080808C8380800203826212059
:1018A000201800000000FE020202000000007F403D
:1018B000404000000C30C0000000000000000106A5
:1018C00038C00000020202FE000000004040407FDD
:1018D00000000000000402020204000000000000FA
:1018E0000000000000000000000000808080808078
:1018F0008080800002020400000000000000000060
:101900000000000000808080800000001924222256
:10191000223F2008F8008080000000003F112020B6
:10192000110E000000008080800000000E112020B9
:10193000201100000000808088F800000E11202097
:10194000103F200000808080800000001F222222A3
:10195000221300008080F0888888180020203F2013
:101960002000000000808080808000006B949494B0
:1019700093600008F8008080800000203F21000074
:10198000203F2000809898000000000020203F2089
:10199000200000000000809898000000C080808037
:1019A0007F000008F8000080808000203F24022D86
:1019B000302000000808F8000000000020203F2030
:1019C0002000008080808080808000203F20003FB9
:1019D00020003F8080008080800000203F210000A8
:1019E000203F200000808080800000001F202020F9
:1019F000201F00808000808000000080FFA1202048
:101A0000110E000000008080808000000E11202058
:101A1000A0FF80808080008080800020203F2120E7
:101A20000001000000808080808000003324242496
:101A3000241900008080E0808000000000001F204A
:101A40002000008080000000808000001F202020F7
:101A5000103F20808080000080808000010E3008D0
:101A600006010080800080008080800F300C030C15
:101A7000300F0000808000808080000020312E0E1A
:101A8000312000808080000080808080818E7018EE
:101A900006010000808080808080000021302C22A0
:101AA00021300000000000807C02020000000000E5
:101AB0003F404000000000FF00000000000000FF69
:101AC0000000000002027C800000000040403F0057
:101AD00000000000060101020204040000000000F2
:101AE00000000000041B0008000000209C0400000F
:101AF0002C010008281D00089C040020CC110000C7
:101B000088010008012A002B5180C0E0E0F0F8F8BD
:101B1000BC1C1C0E0EFFFFFFBFBFE76363434363A4
:101B200063FF9F9FFF3F3F0E0E1C1CBCF8F8F0E0C8
:101B3000E0C0803817F0FEFEFFE7F3F3E7CFCFF702
:101B40008D8C8687FDFDFEFFFFFEFA01290A00123B
:101B50004EFDFD87878F8FFFC7C7E3F1F1E7FFFEDB
:101B6000FEF01A1F631814FCFDFDFDF7F79E6FFFD2
:101B7000FB7FFCF4FFEEE6E7EFFF01180FEFE7E66F
:101B8000EEFFF4FC7FFBFF6F9EE7E7231AFC8F025A
:101B9000501F18230107070F1F1F3B7FFF7FFEFE0B
:101BA000FDFFFF9BFFFCFCFCE4F4F4848CFCFCFFD9
:101BB000FBFFFFFDFEFE1B00085D3F1F1F0F070719
:101BC0000112013B0103011A0701490A1913013DE2
:101BD0001DD8F8FCBC01900CFCDCDEDEFEFEFE7EB7
:101BE0007E6E4C380940E0E0E0C0C04060071FC096
:101BF000C0E02020F0010310E0C000081618FCFC33
:101C0000F8F8F8E01810F8FCFEFEB6E0E0FCDCFFA7
:101C1000FFBEDED4F663730C04280DC0F8FCFFFF92
:101C20001F1F83FDFDFEFF01B5FE7E3636391426EB
:101C3000371F1F1F3F2808071F1F1B1B1F1F129145
:101C400018080C1C1CBCFCFCFC3C1A7F179008EF0D
:101C5000E7C7870F0F06180E1C3C3C381C0E0F0FF1
:101C60001F1FBFBFBF201016DF97C6C6C7CFCF9EAE
:101C70001E1E1EC0F0F0FC7F7F3F0F0F03181110D7
:101C8000104D6F6F373F3F1D3D3F3F7FF2F2F0EB4E
:101C900044606040193A830F071B04046D5E1C3FCB
:101CA0003F3F1FF2500B1C1C0E0E0E0707030301D3
:101CB0001D010303076A70083E3E3E1C1818181ADF
:101CC00003011F3333737171F96D3B030101B14897
:101CD0001D2A427566666572312053656E64206602
:101CE000726F6D2055534152543220746F0A101395
:101CF00033207573696E6720496E746572727570F2
:101D000074214A2335EA32357A33350A103235B137
:101D100084A24A04C0090102030406070809291421
:081D2000691805000204060821
:04000005080000F1FE
:00000001FF
